{
	"contracts/TokenSale.sol": {
		"TokenSale": {
			"abi": [
				{
					"inputs": [
						{
							"internalType": "address",
							"name": "_token",
							"type": "address"
						}
					],
					"stateMutability": "nonpayable",
					"type": "constructor"
				},
				{
					"inputs": [],
					"name": "purchase",
					"outputs": [],
					"stateMutability": "payable",
					"type": "function"
				}
			],
			"devdoc": {
				"kind": "dev",
				"methods": {},
				"version": 1
			},
			"evm": {
				"assembly": "    /* \"contracts/TokenSale.sol\":210:642  contract TokenSale {... */\n  mstore(0x40, 0x80)\n    /* \"contracts/TokenSale.sol\":275:282  1 ether */\n  0x0de0b6b3a7640000\n    /* \"contracts/TokenSale.sol\":254:282  uint256 tokenPrice = 1 ether */\n  0x00\n  sstore\n    /* \"contracts/TokenSale.sol\":312:381  constructor(address _token) {... */\n  callvalue\n  dup1\n  iszero\n  tag_1\n  jumpi\n  0x00\n  dup1\n  revert\ntag_1:\n  pop\n  mload(0x40)\n  sub(codesize, bytecodeSize)\n  dup1\n  bytecodeSize\n  dup4\n  codecopy\n  dup2\n  dup2\n  add\n  0x40\n  mstore\n  dup2\n  add\n  swap1\n  tag_2\n  swap2\n  swap1\n  tag_3\n  jump\t// in\ntag_2:\n    /* \"contracts/TokenSale.sol\":366:372  _token */\n  dup1\n    /* \"contracts/TokenSale.sol\":351:356  token */\n  0x01\n  0x00\n    /* \"contracts/TokenSale.sol\":351:373  token = IERC20(_token) */\n  0x0100\n  exp\n  dup2\n  sload\n  dup2\n  0xffffffffffffffffffffffffffffffffffffffff\n  mul\n  not\n  and\n  swap1\n  dup4\n  0xffffffffffffffffffffffffffffffffffffffff\n  and\n  mul\n  or\n  swap1\n  sstore\n  pop\n    /* \"contracts/TokenSale.sol\":312:381  constructor(address _token) {... */\n  pop\n    /* \"contracts/TokenSale.sol\":210:642  contract TokenSale {... */\n  jump(tag_6)\n    /* \"#utility.yul\":88:205   */\ntag_8:\n    /* \"#utility.yul\":197:198   */\n  0x00\n    /* \"#utility.yul\":194:195   */\n  dup1\n    /* \"#utility.yul\":187:199   */\n  revert\n    /* \"#utility.yul\":334:460   */\ntag_10:\n    /* \"#utility.yul\":371:378   */\n  0x00\n    /* \"#utility.yul\":411:453   */\n  0xffffffffffffffffffffffffffffffffffffffff\n    /* \"#utility.yul\":404:409   */\n  dup3\n    /* \"#utility.yul\":400:454   */\n  and\n    /* \"#utility.yul\":389:454   */\n  swap1\n  pop\n    /* \"#utility.yul\":334:460   */\n  swap2\n  swap1\n  pop\n  jump\t// out\n    /* \"#utility.yul\":466:562   */\ntag_11:\n    /* \"#utility.yul\":503:510   */\n  0x00\n    /* \"#utility.yul\":532:556   */\n  tag_20\n    /* \"#utility.yul\":550:555   */\n  dup3\n    /* \"#utility.yul\":532:556   */\n  tag_10\n  jump\t// in\ntag_20:\n    /* \"#utility.yul\":521:556   */\n  swap1\n  pop\n    /* \"#utility.yul\":466:562   */\n  swap2\n  swap1\n  pop\n  jump\t// out\n    /* \"#utility.yul\":568:690   */\ntag_12:\n    /* \"#utility.yul\":641:665   */\n  tag_22\n    /* \"#utility.yul\":659:664   */\n  dup2\n    /* \"#utility.yul\":641:665   */\n  tag_11\n  jump\t// in\ntag_22:\n    /* \"#utility.yul\":634:639   */\n  dup2\n    /* \"#utility.yul\":631:666   */\n  eq\n    /* \"#utility.yul\":621:684   */\n  tag_23\n  jumpi\n    /* \"#utility.yul\":680:681   */\n  0x00\n    /* \"#utility.yul\":677:678   */\n  dup1\n    /* \"#utility.yul\":670:682   */\n  revert\n    /* \"#utility.yul\":621:684   */\ntag_23:\n    /* \"#utility.yul\":568:690   */\n  pop\n  jump\t// out\n    /* \"#utility.yul\":696:839   */\ntag_13:\n    /* \"#utility.yul\":753:758   */\n  0x00\n    /* \"#utility.yul\":784:790   */\n  dup2\n    /* \"#utility.yul\":778:791   */\n  mload\n    /* \"#utility.yul\":769:791   */\n  swap1\n  pop\n    /* \"#utility.yul\":800:833   */\n  tag_25\n    /* \"#utility.yul\":827:832   */\n  dup2\n    /* \"#utility.yul\":800:833   */\n  tag_12\n  jump\t// in\ntag_25:\n    /* \"#utility.yul\":696:839   */\n  swap3\n  swap2\n  pop\n  pop\n  jump\t// out\n    /* \"#utility.yul\":845:1196   */\ntag_3:\n    /* \"#utility.yul\":915:921   */\n  0x00\n    /* \"#utility.yul\":964:966   */\n  0x20\n    /* \"#utility.yul\":952:961   */\n  dup3\n    /* \"#utility.yul\":943:950   */\n  dup5\n    /* \"#utility.yul\":939:962   */\n  sub\n    /* \"#utility.yul\":935:967   */\n  slt\n    /* \"#utility.yul\":932:1051   */\n  iszero\n  tag_27\n  jumpi\n    /* \"#utility.yul\":970:1049   */\n  tag_28\n  tag_8\n  jump\t// in\ntag_28:\n    /* \"#utility.yul\":932:1051   */\ntag_27:\n    /* \"#utility.yul\":1090:1091   */\n  0x00\n    /* \"#utility.yul\":1115:1179   */\n  tag_29\n    /* \"#utility.yul\":1171:1178   */\n  dup5\n    /* \"#utility.yul\":1162:1168   */\n  dup3\n    /* \"#utility.yul\":1151:1160   */\n  dup6\n    /* \"#utility.yul\":1147:1169   */\n  add\n    /* \"#utility.yul\":1115:1179   */\n  tag_13\n  jump\t// in\ntag_29:\n    /* \"#utility.yul\":1105:1179   */\n  swap2\n  pop\n    /* \"#utility.yul\":1061:1189   */\n  pop\n    /* \"#utility.yul\":845:1196   */\n  swap3\n  swap2\n  pop\n  pop\n  jump\t// out\n    /* \"contracts/TokenSale.sol\":210:642  contract TokenSale {... */\ntag_6:\n  dataSize(sub_0)\n  dup1\n  dataOffset(sub_0)\n  0x00\n  codecopy\n  0x00\n  return\nstop\n\nsub_0: assembly {\n        /* \"contracts/TokenSale.sol\":210:642  contract TokenSale {... */\n      mstore(0x40, 0x80)\n      jumpi(tag_1, lt(calldatasize, 0x04))\n      shr(0xe0, calldataload(0x00))\n      dup1\n      0x64edfbf0\n      eq\n      tag_2\n      jumpi\n    tag_1:\n      0x00\n      dup1\n      revert\n        /* \"contracts/TokenSale.sol\":391:638  function purchase() public payable {... */\n    tag_2:\n      tag_3\n      tag_4\n      jump\t// in\n    tag_3:\n      stop\n    tag_4:\n        /* \"contracts/TokenSale.sol\":460:470  tokenPrice */\n      sload(0x00)\n        /* \"contracts/TokenSale.sol\":446:455  msg.value */\n      callvalue\n        /* \"contracts/TokenSale.sol\":446:470  msg.value >=  tokenPrice */\n      lt\n      iszero\n        /* \"contracts/TokenSale.sol\":437:491  require (msg.value >=  tokenPrice, \"Not enough money\") */\n      tag_6\n      jumpi\n      mload(0x40)\n      0x08c379a000000000000000000000000000000000000000000000000000000000\n      dup2\n      mstore\n      0x04\n      add\n      tag_7\n      swap1\n      tag_8\n      jump\t// in\n    tag_7:\n      mload(0x40)\n      dup1\n      swap2\n      sub\n      swap1\n      revert\n    tag_6:\n        /* \"contracts/TokenSale.sol\":502:526  uint256 tokensToTransfer */\n      0x00\n        /* \"contracts/TokenSale.sol\":541:551  tokenPrice */\n      dup1\n      sload\n        /* \"contracts/TokenSale.sol\":529:538  msg.value */\n      callvalue\n        /* \"contracts/TokenSale.sol\":529:551  msg.value / tokenPrice */\n      tag_9\n      swap2\n      swap1\n      tag_10\n      jump\t// in\n    tag_9:\n        /* \"contracts/TokenSale.sol\":502:551  uint256 tokensToTransfer = msg.value / tokenPrice */\n      swap1\n      pop\n        /* \"contracts/TokenSale.sol\":562:567  token */\n      0x01\n      0x00\n      swap1\n      sload\n      swap1\n      0x0100\n      exp\n      swap1\n      div\n      0xffffffffffffffffffffffffffffffffffffffff\n      and\n        /* \"contracts/TokenSale.sol\":562:576  token.transfer */\n      0xffffffffffffffffffffffffffffffffffffffff\n      and\n      0xa9059cbb\n        /* \"contracts/TokenSale.sol\":577:587  msg.sender */\n      caller\n        /* \"contracts/TokenSale.sol\":613:618  token */\n      0x01\n      0x00\n      swap1\n      sload\n      swap1\n      0x0100\n      exp\n      swap1\n      div\n      0xffffffffffffffffffffffffffffffffffffffff\n      and\n        /* \"contracts/TokenSale.sol\":613:627  token.decimals */\n      0xffffffffffffffffffffffffffffffffffffffff\n      and\n      0x313ce567\n        /* \"contracts/TokenSale.sol\":613:629  token.decimals() */\n      mload(0x40)\n      dup2\n      0xffffffff\n      and\n      0xe0\n      shl\n      dup2\n      mstore\n      0x04\n      add\n      0x20\n      mload(0x40)\n      dup1\n      dup4\n      sub\n      dup2\n      dup7\n      gas\n      staticcall\n      iszero\n      dup1\n      iszero\n      tag_12\n      jumpi\n      returndatasize\n      0x00\n      dup1\n      returndatacopy\n      revert(0x00, returndatasize)\n    tag_12:\n      pop\n      pop\n      pop\n      pop\n      mload(0x40)\n      returndatasize\n      not(0x1f)\n      0x1f\n      dup3\n      add\n      and\n      dup3\n      add\n      dup1\n      0x40\n      mstore\n      pop\n      dup2\n      add\n      swap1\n      tag_13\n      swap2\n      swap1\n      tag_14\n      jump\t// in\n    tag_13:\n        /* \"contracts/TokenSale.sol\":608:610  10 */\n      0x0a\n        /* \"contracts/TokenSale.sol\":589:605  tokensToTransfer */\n      dup6\n        /* \"contracts/TokenSale.sol\":589:610  tokensToTransfer * 10 */\n      tag_15\n      swap2\n      swap1\n      tag_16\n      jump\t// in\n    tag_15:\n        /* \"contracts/TokenSale.sol\":589:629  tokensToTransfer * 10 * token.decimals() */\n      tag_17\n      swap2\n      swap1\n      tag_16\n      jump\t// in\n    tag_17:\n        /* \"contracts/TokenSale.sol\":562:630  token.transfer(msg.sender, tokensToTransfer * 10 * token.decimals()) */\n      mload(0x40)\n      dup4\n      0xffffffff\n      and\n      0xe0\n      shl\n      dup2\n      mstore\n      0x04\n      add\n      tag_18\n      swap3\n      swap2\n      swap1\n      tag_19\n      jump\t// in\n    tag_18:\n      0x00\n      mload(0x40)\n      dup1\n      dup4\n      sub\n      dup2\n      0x00\n      dup8\n      dup1\n      extcodesize\n      iszero\n      dup1\n      iszero\n      tag_20\n      jumpi\n      0x00\n      dup1\n      revert\n    tag_20:\n      pop\n      gas\n      call\n      iszero\n      dup1\n      iszero\n      tag_22\n      jumpi\n      returndatasize\n      0x00\n      dup1\n      returndatacopy\n      revert(0x00, returndatasize)\n    tag_22:\n      pop\n      pop\n      pop\n      pop\n        /* \"contracts/TokenSale.sol\":426:638  {... */\n      pop\n        /* \"contracts/TokenSale.sol\":391:638  function purchase() public payable {... */\n      jump\t// out\n        /* \"#utility.yul\":7:176   */\n    tag_23:\n        /* \"#utility.yul\":91:102   */\n      0x00\n        /* \"#utility.yul\":125:131   */\n      dup3\n        /* \"#utility.yul\":120:123   */\n      dup3\n        /* \"#utility.yul\":113:132   */\n      mstore\n        /* \"#utility.yul\":165:169   */\n      0x20\n        /* \"#utility.yul\":160:163   */\n      dup3\n        /* \"#utility.yul\":156:170   */\n      add\n        /* \"#utility.yul\":141:170   */\n      swap1\n      pop\n        /* \"#utility.yul\":7:176   */\n      swap3\n      swap2\n      pop\n      pop\n      jump\t// out\n        /* \"#utility.yul\":182:348   */\n    tag_24:\n        /* \"#utility.yul\":322:340   */\n      0x4e6f7420656e6f756768206d6f6e657900000000000000000000000000000000\n        /* \"#utility.yul\":318:319   */\n      0x00\n        /* \"#utility.yul\":310:316   */\n      dup3\n        /* \"#utility.yul\":306:320   */\n      add\n        /* \"#utility.yul\":299:341   */\n      mstore\n        /* \"#utility.yul\":182:348   */\n      pop\n      jump\t// out\n        /* \"#utility.yul\":354:720   */\n    tag_25:\n        /* \"#utility.yul\":496:499   */\n      0x00\n        /* \"#utility.yul\":517:584   */\n      tag_42\n        /* \"#utility.yul\":581:583   */\n      0x10\n        /* \"#utility.yul\":576:579   */\n      dup4\n        /* \"#utility.yul\":517:584   */\n      tag_23\n      jump\t// in\n    tag_42:\n        /* \"#utility.yul\":510:584   */\n      swap2\n      pop\n        /* \"#utility.yul\":593:686   */\n      tag_43\n        /* \"#utility.yul\":682:685   */\n      dup3\n        /* \"#utility.yul\":593:686   */\n      tag_24\n      jump\t// in\n    tag_43:\n        /* \"#utility.yul\":711:713   */\n      0x20\n        /* \"#utility.yul\":706:709   */\n      dup3\n        /* \"#utility.yul\":702:714   */\n      add\n        /* \"#utility.yul\":695:714   */\n      swap1\n      pop\n        /* \"#utility.yul\":354:720   */\n      swap2\n      swap1\n      pop\n      jump\t// out\n        /* \"#utility.yul\":726:1145   */\n    tag_8:\n        /* \"#utility.yul\":892:896   */\n      0x00\n        /* \"#utility.yul\":930:932   */\n      0x20\n        /* \"#utility.yul\":919:928   */\n      dup3\n        /* \"#utility.yul\":915:933   */\n      add\n        /* \"#utility.yul\":907:933   */\n      swap1\n      pop\n        /* \"#utility.yul\":979:988   */\n      dup2\n        /* \"#utility.yul\":973:977   */\n      dup2\n        /* \"#utility.yul\":969:989   */\n      sub\n        /* \"#utility.yul\":965:966   */\n      0x00\n        /* \"#utility.yul\":954:963   */\n      dup4\n        /* \"#utility.yul\":950:967   */\n      add\n        /* \"#utility.yul\":943:990   */\n      mstore\n        /* \"#utility.yul\":1007:1138   */\n      tag_45\n        /* \"#utility.yul\":1133:1137   */\n      dup2\n        /* \"#utility.yul\":1007:1138   */\n      tag_25\n      jump\t// in\n    tag_45:\n        /* \"#utility.yul\":999:1138   */\n      swap1\n      pop\n        /* \"#utility.yul\":726:1145   */\n      swap2\n      swap1\n      pop\n      jump\t// out\n        /* \"#utility.yul\":1151:1228   */\n    tag_26:\n        /* \"#utility.yul\":1188:1195   */\n      0x00\n        /* \"#utility.yul\":1217:1222   */\n      dup2\n        /* \"#utility.yul\":1206:1222   */\n      swap1\n      pop\n        /* \"#utility.yul\":1151:1228   */\n      swap2\n      swap1\n      pop\n      jump\t// out\n        /* \"#utility.yul\":1234:1414   */\n    tag_27:\n        /* \"#utility.yul\":1282:1359   */\n      0x4e487b7100000000000000000000000000000000000000000000000000000000\n        /* \"#utility.yul\":1279:1280   */\n      0x00\n        /* \"#utility.yul\":1272:1360   */\n      mstore\n        /* \"#utility.yul\":1379:1383   */\n      0x12\n        /* \"#utility.yul\":1376:1377   */\n      0x04\n        /* \"#utility.yul\":1369:1384   */\n      mstore\n        /* \"#utility.yul\":1403:1407   */\n      0x24\n        /* \"#utility.yul\":1400:1401   */\n      0x00\n        /* \"#utility.yul\":1393:1408   */\n      revert\n        /* \"#utility.yul\":1420:1600   */\n    tag_28:\n        /* \"#utility.yul\":1468:1545   */\n      0x4e487b7100000000000000000000000000000000000000000000000000000000\n        /* \"#utility.yul\":1465:1466   */\n      0x00\n        /* \"#utility.yul\":1458:1546   */\n      mstore\n        /* \"#utility.yul\":1565:1569   */\n      0x11\n        /* \"#utility.yul\":1562:1563   */\n      0x04\n        /* \"#utility.yul\":1555:1570   */\n      mstore\n        /* \"#utility.yul\":1589:1593   */\n      0x24\n        /* \"#utility.yul\":1586:1587   */\n      0x00\n        /* \"#utility.yul\":1579:1594   */\n      revert\n        /* \"#utility.yul\":1606:1791   */\n    tag_10:\n        /* \"#utility.yul\":1646:1647   */\n      0x00\n        /* \"#utility.yul\":1663:1683   */\n      tag_50\n        /* \"#utility.yul\":1681:1682   */\n      dup3\n        /* \"#utility.yul\":1663:1683   */\n      tag_26\n      jump\t// in\n    tag_50:\n        /* \"#utility.yul\":1658:1683   */\n      swap2\n      pop\n        /* \"#utility.yul\":1697:1717   */\n      tag_51\n        /* \"#utility.yul\":1715:1716   */\n      dup4\n        /* \"#utility.yul\":1697:1717   */\n      tag_26\n      jump\t// in\n    tag_51:\n        /* \"#utility.yul\":1692:1717   */\n      swap3\n      pop\n        /* \"#utility.yul\":1736:1737   */\n      dup3\n        /* \"#utility.yul\":1726:1761   */\n      tag_52\n      jumpi\n        /* \"#utility.yul\":1741:1759   */\n      tag_53\n      tag_27\n      jump\t// in\n    tag_53:\n        /* \"#utility.yul\":1726:1761   */\n    tag_52:\n        /* \"#utility.yul\":1783:1784   */\n      dup3\n        /* \"#utility.yul\":1780:1781   */\n      dup3\n        /* \"#utility.yul\":1776:1785   */\n      div\n        /* \"#utility.yul\":1771:1785   */\n      swap1\n      pop\n        /* \"#utility.yul\":1606:1791   */\n      swap3\n      swap2\n      pop\n      pop\n      jump\t// out\n        /* \"#utility.yul\":1878:1995   */\n    tag_30:\n        /* \"#utility.yul\":1987:1988   */\n      0x00\n        /* \"#utility.yul\":1984:1985   */\n      dup1\n        /* \"#utility.yul\":1977:1989   */\n      revert\n        /* \"#utility.yul\":2124:2246   */\n    tag_32:\n        /* \"#utility.yul\":2197:2221   */\n      tag_58\n        /* \"#utility.yul\":2215:2220   */\n      dup2\n        /* \"#utility.yul\":2197:2221   */\n      tag_26\n      jump\t// in\n    tag_58:\n        /* \"#utility.yul\":2190:2195   */\n      dup2\n        /* \"#utility.yul\":2187:2222   */\n      eq\n        /* \"#utility.yul\":2177:2240   */\n      tag_59\n      jumpi\n        /* \"#utility.yul\":2236:2237   */\n      0x00\n        /* \"#utility.yul\":2233:2234   */\n      dup1\n        /* \"#utility.yul\":2226:2238   */\n      revert\n        /* \"#utility.yul\":2177:2240   */\n    tag_59:\n        /* \"#utility.yul\":2124:2246   */\n      pop\n      jump\t// out\n        /* \"#utility.yul\":2252:2395   */\n    tag_33:\n        /* \"#utility.yul\":2309:2314   */\n      0x00\n        /* \"#utility.yul\":2340:2346   */\n      dup2\n        /* \"#utility.yul\":2334:2347   */\n      mload\n        /* \"#utility.yul\":2325:2347   */\n      swap1\n      pop\n        /* \"#utility.yul\":2356:2389   */\n      tag_61\n        /* \"#utility.yul\":2383:2388   */\n      dup2\n        /* \"#utility.yul\":2356:2389   */\n      tag_32\n      jump\t// in\n    tag_61:\n        /* \"#utility.yul\":2252:2395   */\n      swap3\n      swap2\n      pop\n      pop\n      jump\t// out\n        /* \"#utility.yul\":2401:2752   */\n    tag_14:\n        /* \"#utility.yul\":2471:2477   */\n      0x00\n        /* \"#utility.yul\":2520:2522   */\n      0x20\n        /* \"#utility.yul\":2508:2517   */\n      dup3\n        /* \"#utility.yul\":2499:2506   */\n      dup5\n        /* \"#utility.yul\":2495:2518   */\n      sub\n        /* \"#utility.yul\":2491:2523   */\n      slt\n        /* \"#utility.yul\":2488:2607   */\n      iszero\n      tag_63\n      jumpi\n        /* \"#utility.yul\":2526:2605   */\n      tag_64\n      tag_30\n      jump\t// in\n    tag_64:\n        /* \"#utility.yul\":2488:2607   */\n    tag_63:\n        /* \"#utility.yul\":2646:2647   */\n      0x00\n        /* \"#utility.yul\":2671:2735   */\n      tag_65\n        /* \"#utility.yul\":2727:2734   */\n      dup5\n        /* \"#utility.yul\":2718:2724   */\n      dup3\n        /* \"#utility.yul\":2707:2716   */\n      dup6\n        /* \"#utility.yul\":2703:2725   */\n      add\n        /* \"#utility.yul\":2671:2735   */\n      tag_33\n      jump\t// in\n    tag_65:\n        /* \"#utility.yul\":2661:2735   */\n      swap2\n      pop\n        /* \"#utility.yul\":2617:2745   */\n      pop\n        /* \"#utility.yul\":2401:2752   */\n      swap3\n      swap2\n      pop\n      pop\n      jump\t// out\n        /* \"#utility.yul\":2758:3168   */\n    tag_16:\n        /* \"#utility.yul\":2798:2805   */\n      0x00\n        /* \"#utility.yul\":2821:2841   */\n      tag_67\n        /* \"#utility.yul\":2839:2840   */\n      dup3\n        /* \"#utility.yul\":2821:2841   */\n      tag_26\n      jump\t// in\n    tag_67:\n        /* \"#utility.yul\":2816:2841   */\n      swap2\n      pop\n        /* \"#utility.yul\":2855:2875   */\n      tag_68\n        /* \"#utility.yul\":2873:2874   */\n      dup4\n        /* \"#utility.yul\":2855:2875   */\n      tag_26\n      jump\t// in\n    tag_68:\n        /* \"#utility.yul\":2850:2875   */\n      swap3\n      pop\n        /* \"#utility.yul\":2910:2911   */\n      dup3\n        /* \"#utility.yul\":2907:2908   */\n      dup3\n        /* \"#utility.yul\":2903:2912   */\n      mul\n        /* \"#utility.yul\":2932:2962   */\n      tag_69\n        /* \"#utility.yul\":2950:2961   */\n      dup2\n        /* \"#utility.yul\":2932:2962   */\n      tag_26\n      jump\t// in\n    tag_69:\n        /* \"#utility.yul\":2921:2962   */\n      swap2\n      pop\n        /* \"#utility.yul\":3111:3112   */\n      dup3\n        /* \"#utility.yul\":3102:3109   */\n      dup3\n        /* \"#utility.yul\":3098:3113   */\n      div\n        /* \"#utility.yul\":3095:3096   */\n      dup5\n        /* \"#utility.yul\":3092:3114   */\n      eq\n        /* \"#utility.yul\":3072:3073   */\n      dup4\n        /* \"#utility.yul\":3065:3074   */\n      iszero\n        /* \"#utility.yul\":3045:3128   */\n      or\n        /* \"#utility.yul\":3022:3161   */\n      tag_70\n      jumpi\n        /* \"#utility.yul\":3141:3159   */\n      tag_71\n      tag_28\n      jump\t// in\n    tag_71:\n        /* \"#utility.yul\":3022:3161   */\n    tag_70:\n        /* \"#utility.yul\":2806:3168   */\n      pop\n        /* \"#utility.yul\":2758:3168   */\n      swap3\n      swap2\n      pop\n      pop\n      jump\t// out\n        /* \"#utility.yul\":3174:3300   */\n    tag_34:\n        /* \"#utility.yul\":3211:3218   */\n      0x00\n        /* \"#utility.yul\":3251:3293   */\n      0xffffffffffffffffffffffffffffffffffffffff\n        /* \"#utility.yul\":3244:3249   */\n      dup3\n        /* \"#utility.yul\":3240:3294   */\n      and\n        /* \"#utility.yul\":3229:3294   */\n      swap1\n      pop\n        /* \"#utility.yul\":3174:3300   */\n      swap2\n      swap1\n      pop\n      jump\t// out\n        /* \"#utility.yul\":3306:3402   */\n    tag_35:\n        /* \"#utility.yul\":3343:3350   */\n      0x00\n        /* \"#utility.yul\":3372:3396   */\n      tag_74\n        /* \"#utility.yul\":3390:3395   */\n      dup3\n        /* \"#utility.yul\":3372:3396   */\n      tag_34\n      jump\t// in\n    tag_74:\n        /* \"#utility.yul\":3361:3396   */\n      swap1\n      pop\n        /* \"#utility.yul\":3306:3402   */\n      swap2\n      swap1\n      pop\n      jump\t// out\n        /* \"#utility.yul\":3408:3526   */\n    tag_36:\n        /* \"#utility.yul\":3495:3519   */\n      tag_76\n        /* \"#utility.yul\":3513:3518   */\n      dup2\n        /* \"#utility.yul\":3495:3519   */\n      tag_35\n      jump\t// in\n    tag_76:\n        /* \"#utility.yul\":3490:3493   */\n      dup3\n        /* \"#utility.yul\":3483:3520   */\n      mstore\n        /* \"#utility.yul\":3408:3526   */\n      pop\n      pop\n      jump\t// out\n        /* \"#utility.yul\":3532:3650   */\n    tag_37:\n        /* \"#utility.yul\":3619:3643   */\n      tag_78\n        /* \"#utility.yul\":3637:3642   */\n      dup2\n        /* \"#utility.yul\":3619:3643   */\n      tag_26\n      jump\t// in\n    tag_78:\n        /* \"#utility.yul\":3614:3617   */\n      dup3\n        /* \"#utility.yul\":3607:3644   */\n      mstore\n        /* \"#utility.yul\":3532:3650   */\n      pop\n      pop\n      jump\t// out\n        /* \"#utility.yul\":3656:3988   */\n    tag_19:\n        /* \"#utility.yul\":3777:3781   */\n      0x00\n        /* \"#utility.yul\":3815:3817   */\n      0x40\n        /* \"#utility.yul\":3804:3813   */\n      dup3\n        /* \"#utility.yul\":3800:3818   */\n      add\n        /* \"#utility.yul\":3792:3818   */\n      swap1\n      pop\n        /* \"#utility.yul\":3828:3899   */\n      tag_80\n        /* \"#utility.yul\":3896:3897   */\n      0x00\n        /* \"#utility.yul\":3885:3894   */\n      dup4\n        /* \"#utility.yul\":3881:3898   */\n      add\n        /* \"#utility.yul\":3872:3878   */\n      dup6\n        /* \"#utility.yul\":3828:3899   */\n      tag_36\n      jump\t// in\n    tag_80:\n        /* \"#utility.yul\":3909:3981   */\n      tag_81\n        /* \"#utility.yul\":3977:3979   */\n      0x20\n        /* \"#utility.yul\":3966:3975   */\n      dup4\n        /* \"#utility.yul\":3962:3980   */\n      add\n        /* \"#utility.yul\":3953:3959   */\n      dup5\n        /* \"#utility.yul\":3909:3981   */\n      tag_37\n      jump\t// in\n    tag_81:\n        /* \"#utility.yul\":3656:3988   */\n      swap4\n      swap3\n      pop\n      pop\n      pop\n      jump\t// out\n\n    auxdata: 0xa26469706673582212206469300786a0c63206c55870cbcb98bf379dc8a56c079c75abfb867296d0c9e664736f6c634300081a0033\n}\n",
				"bytecode": {
					"linkReferences": {},
					"object": "6080604052670de0b6b3a76400005f5534801561001a575f80fd5b50604051610517380380610517833981810160405281019061003c91906100e0565b8060015f6101000a81548173ffffffffffffffffffffffffffffffffffffffff021916908373ffffffffffffffffffffffffffffffffffffffff1602179055505061010b565b5f80fd5b5f73ffffffffffffffffffffffffffffffffffffffff82169050919050565b5f6100af82610086565b9050919050565b6100bf816100a5565b81146100c9575f80fd5b50565b5f815190506100da816100b6565b92915050565b5f602082840312156100f5576100f4610082565b5b5f610102848285016100cc565b91505092915050565b6103ff806101185f395ff3fe60806040526004361061001d575f3560e01c806364edfbf014610021575b5f80fd5b61002961002b565b005b5f5434101561006f576040517f08c379a000000000000000000000000000000000000000000000000000000000815260040161006690610209565b60405180910390fd5b5f80543461007d919061028a565b905060015f9054906101000a900473ffffffffffffffffffffffffffffffffffffffff1673ffffffffffffffffffffffffffffffffffffffff1663a9059cbb3360015f9054906101000a900473ffffffffffffffffffffffffffffffffffffffff1673ffffffffffffffffffffffffffffffffffffffff1663313ce5676040518163ffffffff1660e01b8152600401602060405180830381865afa158015610127573d5f803e3d5ffd5b505050506040513d601f19601f8201168201806040525081019061014b91906102e8565b600a856101589190610313565b6101629190610313565b6040518363ffffffff1660e01b815260040161017f9291906103a2565b5f604051808303815f87803b158015610196575f80fd5b505af11580156101a8573d5f803e3d5ffd5b5050505050565b5f82825260208201905092915050565b7f4e6f7420656e6f756768206d6f6e6579000000000000000000000000000000005f82015250565b5f6101f36010836101af565b91506101fe826101bf565b602082019050919050565b5f6020820190508181035f830152610220816101e7565b9050919050565b5f819050919050565b7f4e487b71000000000000000000000000000000000000000000000000000000005f52601260045260245ffd5b7f4e487b71000000000000000000000000000000000000000000000000000000005f52601160045260245ffd5b5f61029482610227565b915061029f83610227565b9250826102af576102ae610230565b5b828204905092915050565b5f80fd5b6102c781610227565b81146102d1575f80fd5b50565b5f815190506102e2816102be565b92915050565b5f602082840312156102fd576102fc6102ba565b5b5f61030a848285016102d4565b91505092915050565b5f61031d82610227565b915061032883610227565b925082820261033681610227565b9150828204841483151761034d5761034c61025d565b5b5092915050565b5f73ffffffffffffffffffffffffffffffffffffffff82169050919050565b5f61037d82610354565b9050919050565b61038d81610373565b82525050565b61039c81610227565b82525050565b5f6040820190506103b55f830185610384565b6103c26020830184610393565b939250505056fea26469706673582212206469300786a0c63206c55870cbcb98bf379dc8a56c079c75abfb867296d0c9e664736f6c634300081a0033",
					"opcodes": "PUSH1 0x80 PUSH1 0x40 MSTORE PUSH8 0xDE0B6B3A7640000 PUSH0 SSTORE CALLVALUE DUP1 ISZERO PUSH2 0x1A JUMPI PUSH0 DUP1 REVERT JUMPDEST POP PUSH1 0x40 MLOAD PUSH2 0x517 CODESIZE SUB DUP1 PUSH2 0x517 DUP4 CODECOPY DUP2 DUP2 ADD PUSH1 0x40 MSTORE DUP2 ADD SWAP1 PUSH2 0x3C SWAP2 SWAP1 PUSH2 0xE0 JUMP JUMPDEST DUP1 PUSH1 0x1 PUSH0 PUSH2 0x100 EXP DUP2 SLOAD DUP2 PUSH20 0xFFFFFFFFFFFFFFFFFFFFFFFFFFFFFFFFFFFFFFFF MUL NOT AND SWAP1 DUP4 PUSH20 0xFFFFFFFFFFFFFFFFFFFFFFFFFFFFFFFFFFFFFFFF AND MUL OR SWAP1 SSTORE POP POP PUSH2 0x10B JUMP JUMPDEST PUSH0 DUP1 REVERT JUMPDEST PUSH0 PUSH20 0xFFFFFFFFFFFFFFFFFFFFFFFFFFFFFFFFFFFFFFFF DUP3 AND SWAP1 POP SWAP2 SWAP1 POP JUMP JUMPDEST PUSH0 PUSH2 0xAF DUP3 PUSH2 0x86 JUMP JUMPDEST SWAP1 POP SWAP2 SWAP1 POP JUMP JUMPDEST PUSH2 0xBF DUP2 PUSH2 0xA5 JUMP JUMPDEST DUP2 EQ PUSH2 0xC9 JUMPI PUSH0 DUP1 REVERT JUMPDEST POP JUMP JUMPDEST PUSH0 DUP2 MLOAD SWAP1 POP PUSH2 0xDA DUP2 PUSH2 0xB6 JUMP JUMPDEST SWAP3 SWAP2 POP POP JUMP JUMPDEST PUSH0 PUSH1 0x20 DUP3 DUP5 SUB SLT ISZERO PUSH2 0xF5 JUMPI PUSH2 0xF4 PUSH2 0x82 JUMP JUMPDEST JUMPDEST PUSH0 PUSH2 0x102 DUP5 DUP3 DUP6 ADD PUSH2 0xCC JUMP JUMPDEST SWAP2 POP POP SWAP3 SWAP2 POP POP JUMP JUMPDEST PUSH2 0x3FF DUP1 PUSH2 0x118 PUSH0 CODECOPY PUSH0 RETURN INVALID PUSH1 0x80 PUSH1 0x40 MSTORE PUSH1 0x4 CALLDATASIZE LT PUSH2 0x1D JUMPI PUSH0 CALLDATALOAD PUSH1 0xE0 SHR DUP1 PUSH4 0x64EDFBF0 EQ PUSH2 0x21 JUMPI JUMPDEST PUSH0 DUP1 REVERT JUMPDEST PUSH2 0x29 PUSH2 0x2B JUMP JUMPDEST STOP JUMPDEST PUSH0 SLOAD CALLVALUE LT ISZERO PUSH2 0x6F JUMPI PUSH1 0x40 MLOAD PUSH32 0x8C379A000000000000000000000000000000000000000000000000000000000 DUP2 MSTORE PUSH1 0x4 ADD PUSH2 0x66 SWAP1 PUSH2 0x209 JUMP JUMPDEST PUSH1 0x40 MLOAD DUP1 SWAP2 SUB SWAP1 REVERT JUMPDEST PUSH0 DUP1 SLOAD CALLVALUE PUSH2 0x7D SWAP2 SWAP1 PUSH2 0x28A JUMP JUMPDEST SWAP1 POP PUSH1 0x1 PUSH0 SWAP1 SLOAD SWAP1 PUSH2 0x100 EXP SWAP1 DIV PUSH20 0xFFFFFFFFFFFFFFFFFFFFFFFFFFFFFFFFFFFFFFFF AND PUSH20 0xFFFFFFFFFFFFFFFFFFFFFFFFFFFFFFFFFFFFFFFF AND PUSH4 0xA9059CBB CALLER PUSH1 0x1 PUSH0 SWAP1 SLOAD SWAP1 PUSH2 0x100 EXP SWAP1 DIV PUSH20 0xFFFFFFFFFFFFFFFFFFFFFFFFFFFFFFFFFFFFFFFF AND PUSH20 0xFFFFFFFFFFFFFFFFFFFFFFFFFFFFFFFFFFFFFFFF AND PUSH4 0x313CE567 PUSH1 0x40 MLOAD DUP2 PUSH4 0xFFFFFFFF AND PUSH1 0xE0 SHL DUP2 MSTORE PUSH1 0x4 ADD PUSH1 0x20 PUSH1 0x40 MLOAD DUP1 DUP4 SUB DUP2 DUP7 GAS STATICCALL ISZERO DUP1 ISZERO PUSH2 0x127 JUMPI RETURNDATASIZE PUSH0 DUP1 RETURNDATACOPY RETURNDATASIZE PUSH0 REVERT JUMPDEST POP POP POP POP PUSH1 0x40 MLOAD RETURNDATASIZE PUSH1 0x1F NOT PUSH1 0x1F DUP3 ADD AND DUP3 ADD DUP1 PUSH1 0x40 MSTORE POP DUP2 ADD SWAP1 PUSH2 0x14B SWAP2 SWAP1 PUSH2 0x2E8 JUMP JUMPDEST PUSH1 0xA DUP6 PUSH2 0x158 SWAP2 SWAP1 PUSH2 0x313 JUMP JUMPDEST PUSH2 0x162 SWAP2 SWAP1 PUSH2 0x313 JUMP JUMPDEST PUSH1 0x40 MLOAD DUP4 PUSH4 0xFFFFFFFF AND PUSH1 0xE0 SHL DUP2 MSTORE PUSH1 0x4 ADD PUSH2 0x17F SWAP3 SWAP2 SWAP1 PUSH2 0x3A2 JUMP JUMPDEST PUSH0 PUSH1 0x40 MLOAD DUP1 DUP4 SUB DUP2 PUSH0 DUP8 DUP1 EXTCODESIZE ISZERO DUP1 ISZERO PUSH2 0x196 JUMPI PUSH0 DUP1 REVERT JUMPDEST POP GAS CALL ISZERO DUP1 ISZERO PUSH2 0x1A8 JUMPI RETURNDATASIZE PUSH0 DUP1 RETURNDATACOPY RETURNDATASIZE PUSH0 REVERT JUMPDEST POP POP POP POP POP JUMP JUMPDEST PUSH0 DUP3 DUP3 MSTORE PUSH1 0x20 DUP3 ADD SWAP1 POP SWAP3 SWAP2 POP POP JUMP JUMPDEST PUSH32 0x4E6F7420656E6F756768206D6F6E657900000000000000000000000000000000 PUSH0 DUP3 ADD MSTORE POP JUMP JUMPDEST PUSH0 PUSH2 0x1F3 PUSH1 0x10 DUP4 PUSH2 0x1AF JUMP JUMPDEST SWAP2 POP PUSH2 0x1FE DUP3 PUSH2 0x1BF JUMP JUMPDEST PUSH1 0x20 DUP3 ADD SWAP1 POP SWAP2 SWAP1 POP JUMP JUMPDEST PUSH0 PUSH1 0x20 DUP3 ADD SWAP1 POP DUP2 DUP2 SUB PUSH0 DUP4 ADD MSTORE PUSH2 0x220 DUP2 PUSH2 0x1E7 JUMP JUMPDEST SWAP1 POP SWAP2 SWAP1 POP JUMP JUMPDEST PUSH0 DUP2 SWAP1 POP SWAP2 SWAP1 POP JUMP JUMPDEST PUSH32 0x4E487B7100000000000000000000000000000000000000000000000000000000 PUSH0 MSTORE PUSH1 0x12 PUSH1 0x4 MSTORE PUSH1 0x24 PUSH0 REVERT JUMPDEST PUSH32 0x4E487B7100000000000000000000000000000000000000000000000000000000 PUSH0 MSTORE PUSH1 0x11 PUSH1 0x4 MSTORE PUSH1 0x24 PUSH0 REVERT JUMPDEST PUSH0 PUSH2 0x294 DUP3 PUSH2 0x227 JUMP JUMPDEST SWAP2 POP PUSH2 0x29F DUP4 PUSH2 0x227 JUMP JUMPDEST SWAP3 POP DUP3 PUSH2 0x2AF JUMPI PUSH2 0x2AE PUSH2 0x230 JUMP JUMPDEST JUMPDEST DUP3 DUP3 DIV SWAP1 POP SWAP3 SWAP2 POP POP JUMP JUMPDEST PUSH0 DUP1 REVERT JUMPDEST PUSH2 0x2C7 DUP2 PUSH2 0x227 JUMP JUMPDEST DUP2 EQ PUSH2 0x2D1 JUMPI PUSH0 DUP1 REVERT JUMPDEST POP JUMP JUMPDEST PUSH0 DUP2 MLOAD SWAP1 POP PUSH2 0x2E2 DUP2 PUSH2 0x2BE JUMP JUMPDEST SWAP3 SWAP2 POP POP JUMP JUMPDEST PUSH0 PUSH1 0x20 DUP3 DUP5 SUB SLT ISZERO PUSH2 0x2FD JUMPI PUSH2 0x2FC PUSH2 0x2BA JUMP JUMPDEST JUMPDEST PUSH0 PUSH2 0x30A DUP5 DUP3 DUP6 ADD PUSH2 0x2D4 JUMP JUMPDEST SWAP2 POP POP SWAP3 SWAP2 POP POP JUMP JUMPDEST PUSH0 PUSH2 0x31D DUP3 PUSH2 0x227 JUMP JUMPDEST SWAP2 POP PUSH2 0x328 DUP4 PUSH2 0x227 JUMP JUMPDEST SWAP3 POP DUP3 DUP3 MUL PUSH2 0x336 DUP2 PUSH2 0x227 JUMP JUMPDEST SWAP2 POP DUP3 DUP3 DIV DUP5 EQ DUP4 ISZERO OR PUSH2 0x34D JUMPI PUSH2 0x34C PUSH2 0x25D JUMP JUMPDEST JUMPDEST POP SWAP3 SWAP2 POP POP JUMP JUMPDEST PUSH0 PUSH20 0xFFFFFFFFFFFFFFFFFFFFFFFFFFFFFFFFFFFFFFFF DUP3 AND SWAP1 POP SWAP2 SWAP1 POP JUMP JUMPDEST PUSH0 PUSH2 0x37D DUP3 PUSH2 0x354 JUMP JUMPDEST SWAP1 POP SWAP2 SWAP1 POP JUMP JUMPDEST PUSH2 0x38D DUP2 PUSH2 0x373 JUMP JUMPDEST DUP3 MSTORE POP POP JUMP JUMPDEST PUSH2 0x39C DUP2 PUSH2 0x227 JUMP JUMPDEST DUP3 MSTORE POP POP JUMP JUMPDEST PUSH0 PUSH1 0x40 DUP3 ADD SWAP1 POP PUSH2 0x3B5 PUSH0 DUP4 ADD DUP6 PUSH2 0x384 JUMP JUMPDEST PUSH2 0x3C2 PUSH1 0x20 DUP4 ADD DUP5 PUSH2 0x393 JUMP JUMPDEST SWAP4 SWAP3 POP POP POP JUMP INVALID LOG2 PUSH5 0x6970667358 0x22 SLT KECCAK256 PUSH5 0x69300786A0 0xC6 ORIGIN MOD 0xC5 PC PUSH17 0xCBCB98BF379DC8A56C079C75ABFB867296 0xD0 0xC9 0xE6 PUSH5 0x736F6C6343 STOP ADDMOD BYTE STOP CALLER "
				},
				"gasEstimates": {
					"creation": {
						"codeDepositCost": "204600",
						"executionCost": "infinite",
						"totalCost": "infinite"
					},
					"external": {
						"purchase()": "infinite"
					}
				},
				"methodIdentifiers": {
					"purchase()": "64edfbf0"
				}
			},
			"storageLayout": {
				"storage": [
					{
						"astId": 17,
						"contract": "contracts/TokenSale.sol:TokenSale",
						"label": "tokenPrice",
						"offset": 0,
						"slot": "0",
						"type": "t_uint256"
					},
					{
						"astId": 20,
						"contract": "contracts/TokenSale.sol:TokenSale",
						"label": "token",
						"offset": 0,
						"slot": "1",
						"type": "t_contract(IERC20)14"
					}
				],
				"types": {
					"t_contract(IERC20)14": {
						"encoding": "inplace",
						"label": "contract IERC20",
						"numberOfBytes": "20"
					},
					"t_uint256": {
						"encoding": "inplace",
						"label": "uint256",
						"numberOfBytes": "32"
					}
				}
			},
			"userdoc": {
				"kind": "user",
				"methods": {},
				"version": 1
			}
		}
	}
}